:020000040800F2
:10000000D00A002029020008331400086D110008EE
:100010003114000873040008ED1600080000000009
:100020000000000000000000000000004116000871
:10003000750400080000000035140008431600088D
:10004000430200084302000843020008430200087C
:10005000430200084302000843020008430200086C
:10006000430200084302000843020008430200085C
:10007000430200084302000843020008430200084C
:10008000430200084302000843020008430200083C
:10009000430200084302000843020008430200082C
:1000A000430200084302000843020008430200081C
:1000B000430200084302000843020008430200080C
:1000C00043020008430200084302000843020008FC
:1000D00043020008430200084302000843020008EC
:1000E00043020008430200084302000843020008DC
:1000F00043020008430200084302000843020008CC
:1001000043020008430200084302000843020008BB
:1001100043020008430200084302000843020008AB
:10012000430200084302000843020008430200089B
:10013000430200084302000843020008430200088B
:10014000430200084302000843020008430200087B
:10015000430200084302000843020008430200086B
:10016000430200084302000843020008430200085B
:100170004302000843020008430200080000000098
:10018000430200084302000800F002F800F03CF8C7
:100190000AA090E8000C82448344AAF10107DA45E2
:1001A00001D100F031F8AFF2090EBAE80F0013F0F8
:1001B000010F18BFFB1A43F0010318475016000047
:1001C00070160000103A24BF78C878C1FAD85207D8
:1001D00024BF30C830C144BF04680C6070470000C1
:1001E0000023002400250026103A28BF78C1FBD840
:1001F000520728BF30C148BF0B6070471FB501F0E0
:10020000F3FA1FBD10B510BD00F0F9F81146FFF765
:10021000F5FF01F07DFA00F017F903B4FFF7F2FFE4
:1002200003BC00F01FF90000094880470948004757
:10023000FEE7FEE7FEE7FEE7FEE7FEE7FEE7FEE796
:10024000FEE7FEE704480549054A064B70470000F3
:10025000DD16000889010008D0040020D00A002023
:10026000D0060020D006002053EA020C00F069807E
:100270002DE9F04B4FF00006002B1FBFB3FA83F5BA
:1002800003FA05F424FA05F65E4012BF1643B2FAEB
:1002900082F502FA05F4C5F120051EBF22FA05FC1D
:1002A00044EA0C04203556EA044C4FEA144418BFC3
:1002B000641C4FF000084FF00009904271EB030CF2
:1002C00039D3002919BFB1FA81F701FA07F6B0FA5C
:1002D00080F700FA07F6C7F120071EBF20FA07FCD7
:1002E00046EA0C062037B6FBF4FCA7EB0507103FE7
:1002F00007F01F0BCBF120060CFA0BFB2CFA06F6CD
:1003000044BFB3460026202FA4BF5E464FF0000B2B
:100310005BEA060C08BF4FF0010B19EB0B09ABFBB6
:10032000027C48EB0608C01B06FB02CC0BFB03CC8F
:1003300071EB0C01C1E70B46024641464846BDE859
:10034000F08B13B54FF000004FF00001AFF30080C9
:10035000BDE81C40704702F0FF0343EA032242EA73
:10036000024200F02CB84FF0000200B5134694464C
:100370009646203922BFA0E80C50A0E80C50B1F1FD
:100380002001BFF4F7AF090728BFA0E80C5048BF11
:100390000CC05DF804EB890028BF40F8042B08BFAF
:1003A000704748BF20F8022B11F0804F18BF00F8AB
:1003B000012B70477047704770474FF000020429C7
:1003C000C0F0128010F0030C3FF4CFAFCCF1040C5E
:1003D000BCF1020F18BF00F8012BA8BF20F8022BB8
:1003E000A1EB0C01FFF7C1BF5FEAC17C24BF00F89D
:1003F000012B00F8012B48BF00F8012B7047754610
:1004000000F02CF8AE4605006946534620F0070080
:10041000854618B020B5FFF715FFBDE820404FF026
:1004200000064FF000074FF000084FF0000B21F0DE
:100430000701AC46ACE8C009ACE8C009ACE8C009AB
:10044000ACE8C0098D46704710B50446AFF3008094
:100450002046BDE81040FFF7E0BE000000487047AE
:100460006C04002001491820ABBEFEE72600020004
:100470007047FEE7704700002DE9F84FDFF8BCA198
:100480000022012503264FF00F090AF1040BAAF1FF
:10049000040E00BF0B6805FA02F42340A34270D19A
:1004A0000F7907F00307012F01D0022F16D18768BB
:1004B0004FEA420806FA08FC27EA0C07D1F80CC0FC
:1004C0000CFA08FC4CEA070CC0F808C04768A743C0
:1004D0000C79C4F3001494403C4344600C79E44329
:1004E000A4070AD0C4684FEA420C06FA0CF7BC43D2
:1004F0008F6807FA0CF72743C7600C7904F00304F0
:10050000022C12D1D40800EB840CDCF820405707F1
:10051000FF0E09FA07F824EA0804D1F8108008FA57
:1005200007F848EA0408CCF8208004684FEA420C37
:1005300006FA0CF7BC430F7907F0030707FA0CF72C
:10054000274307604C6814F4403F70D03C4C276848
:1005500047F480472760246822F0030704F48044AE
:100560000094384C07EB040CDCF8084897074FEA76
:10057000177809FA08F7BC43334FB84202D1002775
:1005800024E054E0314FB84201D101271EE0304F42
:10059000B84201D1022719E02E4FB84201D10327FA
:1005A00014E02D4FB84201D104270FE02B4FB84281
:1005B00001D105270AE02A4FB84201D1062705E0FC
:1005C000284FB84201D1072700E0082707FA08F7AB
:1005D0002743CCF80878DAF800405746D1F804C031
:1005E0009C435FEACC2C00D51C433C60DBF8004008
:1005F0005F46D1F804C09C435FEA8C2C00D51C43B5
:100600003C60DEF800407746D1F804C09C435FEAC6
:100610008C3C00D51C433C60084F083F3C68D1F837
:1006200004C09C435FEACC3C00D51C433C60521C98
:10063000102AFFF42FAFBDE8F88F0000083C0140FE
:1006400044380240003001400000024000040240F3
:1006500000080240000C024000100240001402405A
:1006600000180240001C02400AB181617047090471
:10067000FBE7000001488068704700000800002088
:1006800070B5040025D094F83D00002520B984F809
:100690003C50204600F004FA242084F83D002068F5
:1006A000016821F0010101602068016841F4004106
:1006B00001602068016821F40041016000F04AFBFC
:1006C0004D4A6168914201D84C4900E04C4988424A
:1006D00001D2012070BD4B492368B0FBF1F15E6887
:1006E00026F03F060E435E606368934206D94FF4DE
:1006F000967359434FF47A73B1FBF3F12368491CA5
:100700001E6A26F03F06314319626168914210D893
:100710004900401EB0FBF1F2521CC2F30B02042A46
:1007200001D2042022E0B0FBF1F0401CC0F30B002A
:100730001CE0A268F2B301EBC10303EB0116431EF8
:10074000B3FBF6F35B1C43F480431B0549D092B323
:1007500001EBC10202EB0111401EB0FBF1F0401CA5
:10076000C0F30B0040F4804040F400402168CA69A7
:100770004CF6FF739A431043C861D4E90710014354
:100780002068026822F0C00211430160D4E903012D
:1007900001432068826848F2FF339A431143816025
:1007A000D4E9050108432168CA6822F0FF0210431A
:1007B000C86001E00EE016E02068016841F0010128
:1007C00001602564202084F83D00256384F83E50B4
:1007D000002070BD01EB4106431EB3FBF6F35B1C2A
:1007E000B3E70120C2E701EB4101401EB0FBF1F08D
:1007F000401CC0F30B00B7E7A086010080841E00F8
:1008000000093D0040420F002DE9FF4F81B08946AD
:100810000446FFF72FFF054694F83D004FF000080F
:1008200020287DD11923012250492046009500F04F
:1008300029FD002874D194F83C00012870D00120D3
:1008400084F83C0020680168C90703D1016841F0C1
:10085000010101602068016821F400610160242029
:1008600084F83D00002626644148E0624FF0011BF9
:1008700020272068016841F4807101600095002202
:1008800059462046049B00F0FDFC50B120680068EA
:10089000C00502D54FF400702064032005B0BDE808
:1008A000F08F216809F0FE000861FFF7E3FE216880
:1008B000054648694969C0F34000C1F380214FF003
:1008C000A00A0FE0FFF7D6FE411B0498814200D832
:1008D00008B984F83DA0216848694969C0F340001F
:1008E000C1F3802194F83D20A02A02D008B9002944
:1008F000E8D084F83D7020684169C943890716D45F
:10090000016841F400710160206841698069192320
:10091000012216492046009500F0B4FCB8B900E069
:1009200021E084F83D7084F83C600020B6E701685F
:1009300041F40071016021686FF4806048611923FF
:1009400001220A492046009500F09CFC08B10120D4
:10095000A4E7039808F1010880458AD384F83D7024
:1009600084F83C60F3E7022098E7000002001000E2
:100970000000FFFF2DE9F84F1F4690468A460446C7
:10098000DDF82890FFF776FE054694F83D00202814
:100990007FD11923012240492046009500F072FCC6
:1009A000002876D194F83C00012872D0012084F808
:1009B0003C0020680168C90703D1016841F00101CA
:1009C00001602068016821F400610160212084F841
:1009D0003D00102084F83E0000262664C4F82480E0
:1009E0006785608D20852D48E0622B464A4651463A
:1009F000204600F0D3FB90B92068416980690090DF
:100A000036E02A464946204600F0BBFC50B1206C37
:100A1000042804D12068016841F4007101600120BC
:100A2000BDE8F88F606A216800780861606A401C40
:100A30006062618D491E6185218D491E89B22185C3
:100A400022685369DB435B070BD451B10078106116
:100A5000606A401C6062608D401E6085208D401E73
:100A600020852A464946204600F0E6FB0028CED1E4
:100A7000208D0028C5D154F83D0B016841F4007168
:100A80000160202004F81E09E67766770020C7E79A
:100A9000FFE70220C4E70000020010000000FFFF93
:100AA00010B586B0044614216846FFF75CFC134974
:100AB0002068884220D11248016841F0020101609B
:100AC0000068694600F002000590C02000901220E6
:100AD0000190012002900320039004200490094813
:100AE000FFF7CAFC06481030016841F400110160AC
:100AF000006800F40010059006B010BD00540040DE
:100B000030380240000402400248816802781144F3
:100B100081607047080000200B4810B5016841F45F
:100B200000710160016841F480610160016841F475
:100B300080710160032000F061F80F2000F006F8DA
:100B400000F024F8002010BD003C024070B50D4DAF
:100B500004464FF47A712878B1FBF0F00A4909682D
:100B6000B1FBF0F000F0EEFA48B9102C07D20022E9
:100B70002146501E00F022F800206C6070BD01205C
:100B800070BD000008000020140000200A4808B5CD
:100B9000016841F480410160006800F480400090E9
:100BA0000548001F016841F080510160006800F0B5
:100BB0008050009008BD000044380240F0B40E4B55
:100BC0001B680C46C3F30223C3F10705042D00D9AB
:100BD0000425191D072901D2002300E0DB1E012690
:100BE00006FA05F1491E214099409E40761E1640A6
:100BF0003143F0BC00F07BBD0CED00E0064900F095
:100C0000070208684FF6FF03184040EA0220034A33
:100C100010430860704700000CED00E00000FA058A
:100C20002DE9F0470E46050065D0DFF81481D8F8AD
:100C30000000F7B200F00700B04207D288F8007059
:100C4000D8F8000000F00700B04254D128683D4CAD
:100C5000810712D5400703D5206840F4E05020609A
:100C60002878000703D5206840F4604020602068A1
:100C7000A96820F0F000084320602878C0072DD034
:100C8000304968680839012812D0022813D0032897
:100C900011D00968890700292DDA216821F00301A4
:100CA00001432160FFF7E6FC814641F2883A0EE0FD
:100CB00009688903EFE709688901ECE7FFF7DAFCC7
:100CC000A0EB0901514502D90320BDE8F087206857
:100CD000696800F00C00B0EB810FEFD1D8F800107C
:100CE000404601F00701B14207D90770006800F0E3
:100CF0000700B04201D00120E7E72878400705D57A
:100D00002068E96820F4E050084320602878000754
:100D100006D52068296920F4604040EAC1002060BF
:100D200000F028F82168084AC1F30311515CC8405B
:100D30000649086006480068FFF708FF0020C4E77E
:100D4000003C024008380240F2170008140000205E
:100D50000C0000200448054900680968044AC1F3F2
:100D60008221515CC84070471400002008380240BE
:100D700002180008154810B5006810F00C0214485D
:100D800013D01449042A0FD0082A0ED10F4C241F67
:100D90002268236802F03F025B0207D52068C0F397
:100DA0008810A0FB010106E0084610BD2168C1F3D0
:100DB0008811A1FB00010023FFF756FA2168C1F357
:100DC0000141491C4900B0FBF1F010BD0838024058
:100DD0000024F40040787D012DE9F84F04006ED026
:100DE0002078DFF84C93C007A9F104054AD009F137
:100DF00004000168C1F38101012908D00068C0F333
:100E0000810002280AD1D9F80000400206D52868DE
:100E1000800337D560680028E1D033E06068B0F522
:100E2000803F10D0B0F5A02F286810D020F480307B
:100E30002860286820F4802028606068A8B1FFF747
:100E400019FC06460DE0286840F48030F4E740F4D1
:100E500080202860F7E700BFFFF70CFC801B6428A8
:100E600073D828688003F7D50CE0FFF703FC06462B
:100E700005E000BFFFF7FEFB801B6428F0D8286860
:100E80008003F7D42078DFF8AC8280074FF0000AA7
:100E90003ED5A748001D016811F00C0F08D000686E
:100EA000C0F3810002280BD1D9F80000400207D41A
:100EB0002868800716D5E068012800D112E033E1E8
:100EC000E068B8B10120C8F80000FFF7D3FB064680
:100ED00005E000BFFFF7CEFB801B0228C0D82868C2
:100EE0008007F7D52868216920F0F80040EAC100A2
:100EF00028600DE0C8F800A0FFF7BCFB064604E040
:100F0000FFF7B8FB801B02281FD828688007F7D49A
:100F10002078000722D5864F87486169703771B104
:100F200001210160FFF7A6FB064604E0FFF7A2FBE4
:100F3000801B022809D838688007F7D50EE0C0F872
:100F400000A0FFF797FB064605E082E0FFF792FB63
:100F5000801B02287DD838688007F7D420784007A6
:100F600068D5DFF8CCB100270BF13C0BDBF80000B3
:100F7000C0000BD4DBF8001041F08051CBF800101A
:100F8000DBF80000012700F0805000906B4E3068C5
:100F9000C00510D4306840F480703060FFF76AFB01
:100FA000009005E0FFF766FB0099401A022850D830
:100FB0003068C005F6D55E4EA0686C3601280FD0AB
:100FC0000528306810D020F001003060306820F033
:100FD00004003060A068B8B1FFF74CFB00900FE050
:100FE000306840F00100F4E740F004003060F7E7BB
:100FF000FFF740FB0099411A41F28830814266D8E0
:1010000030688007F4D50EE0FFF734FB009007E06E
:10101000FFF730FB0099411A41F28830814256D8DF
:1010200030688007F4D42FB1DBF8001021F0805134
:10103000CBF80010A069C8B33D49091D0968C1F388
:10104000810102294AD00228504607D0C8F8600022
:1010500000E03CE0FFF70EFB04463BE04746C8F8E3
:101060006000FFF707FB064605E000BFFFF702FB45
:10107000801B02282BD828688001F7D4D4E9070107
:101080000843A16A2E4A490802EB0141626A41EA1B
:101090008211084394F82C1040EA0161C9F800104D
:1010A00001203866FFF7E6FA044606E03EE000BF9E
:1010B000FFF7E0FA001B022809D828688001F7D55D
:1010C00034E000BFFFF7D6FA001B022802D9032044
:1010D000BDE8F88F28688001F4D427E00128F7D014
:1010E000D9F80000E26900F4800191421CD1226A23
:1010F00000F03F01914217D147F6C071626A01408A
:10110000B1EB821F10D1A26A4FF0FF3300F44031DF
:1011100003EB5202B1EB024F06D194F82C1000F011
:101120007060B0EB016F01D00120D1E70020CFE764
:101130000438024000004742800E474200700040E1
:101140000000FFFF10B5401EB0F1807F01D30120E9
:1011500010BD4FF0E02460610F21601700F0C7FA66
:101160000020A06107202061002010BDFEE701687B
:101170004A69D24352050FD46FF480624A6100215C
:1011800040F8301F202242738173026942F004024A
:10119000026101730120704700207047F8B50446D2
:1011A000C06A1E460D461746082807D0012805D0FC
:1011B00010F5803F02D0206B122804D1206801680E
:1011C00041F480710160134600224FF00111204666
:1011D000009600F057F840B120680068C00502D5BD
:1011E0004FF4007020640320F8BD2069B0F5804FF3
:1011F0000ED00620216800EAD51040F0F00008610A
:1012000033463A460B49204600F070F878B902E0C0
:1012100005F0FE0000E0E8B22168086105493346A8
:101220003A46891F204600F061F80028DCD00120F2
:10123000F8BD00000800010070B516460D460446D2
:101240000DE02046FFF793FF08B1012070BD681C38
:1012500005D0FFF70FFA801BA84207D835B12068E8
:101260004069C0434007ECD4002070BD002044F822
:10127000300F20216173A073216941F020012161A9
:101280002073E2E72DE9F0471E4690460D460446DE
:10129000C1F30747DDF8209008E0701C06D0FFF787
:1012A000E9F9A0EB0900B0420FD876B12068012F10
:1012B00018D0806925EA00000004000C14D0002139
:1012C0004145EAD00020BDE8F087002044F8300F07
:1012D00020216173A073216941F0200121612073F5
:1012E0000120F0E74069E5E70121E9E72DE9F04752
:1012F0009A4691460E46044600254FF02008C1F359
:10130000074725E020684069C043400514D42068A1
:10131000016841F40071016021686FF480604861E8
:10132000256384F83D8084F83E50206C40F0040032
:10133000206484F83C501FE0B9F1FF3F08D0FFF76C
:1013400099F9A0EB0A0149450CD8B9F1000F09D071
:101350002068012F13D0806926EA00000004000CE9
:101360000BD0CFE744F8305F84F80D80A573206977
:1013700040F02000206125730120BDE8F08740691E
:10138000EAE770B516460D4604460DE02046FFF725
:10139000EEFE08B1012070BD681C05D0FFF76AF9A8
:1013A000801BA84207D835B120684069C0430006B9
:1013B000ECD4002070BD002044F8300F2021617370
:1013C000A073216941F0200121612073E2E7000050
:1013D00070B586B014216846FEF7C5FF1248002498
:1013E000016841F008010160016801F00801059100
:1013F000016841F00201016000680C4E00F002003B
:101400004FF480550590224629463046FFF72CF9C7
:1014100001200095CDE90104694630460394FFF7A9
:101420002BF806B070BD000030380240000C0240BE
:10143000FEE7FEE77047000070B5802813D2402910
:1014400011D20B4B012401F007051E79AC40094B6A
:10145000C90800EBC1100EB132B101E0012A03D07E
:10146000195CA143195470BD195C2143FAE70000CF
:10147000000000206C00002028B1FF224FF48061A2
:101480000248FEF768BF0022F8E700006C00002069
:1014900010B500F077F944F6206301227821544812
:1014A000FFF7B2F908B1002010BD40F6C210401E8F
:1014B000FDD1AE220021782000F06AF9202200211F
:1014C000782000F065F910220021782000F060F902
:1014D000B0220021782000F05BF9C822002178209A
:1014E00000F056F900221146782000F051F9102240
:1014F0000021782000F04CF940220021782000F0F3
:1015000047F981220021782000F042F9FF220021D2
:10151000782000F03DF9A1220021782000F038F970
:10152000A6220021782000F033F9A822002178209B
:1015300000F02EF93F220021782000F029F9A422A2
:101540000021782000F024F9D3220021782000F037
:101550001FF900221146782000F01AF9D522002147
:10156000782000F015F9F0220021782000F010F921
:10157000D9220021782000F00BF9222200217820C6
:1015800000F006F9DA220021782000F001F9122299
:101590000021782000F0FCF8DB220021782000F008
:1015A000F7F820220021782000F0F2F88D220021A7
:1015B000782000F0EDF814220021782000F0E8F8FF
:1015C000AF220021782000F0E3F82E2200217820BD
:1015D00000F0DEF80020FFF74FFF00F00DF805489F
:1015E00000210180418001214171084610BD0000A9
:1015F000180000200000002070B5104D002400BF2E
:1016000004F1B000C2B20021782000F0C1F800223D
:101610001146782000F0BCF810220021782000F05C
:10162000B7F805EBC41280234021782000F0C0F801
:10163000641CE4B2082CE3D370BD00006C000020F1
:101640007047FFF761BA000030B593B030216846AB
:10165000FEF789FE14210CA8FEF785FE1D48002523
:10166000016841F080510160006800F080501190E5
:101670001948016841F4804101600068022400F4C7
:101680008040119001200390102004900094069453
:101690000820CDE90750A820CDE9090404200B90CB
:1016A0006846FFF799FB08B172B6FEE70CA90F2058
:1016B00081E831004FF4A0500F904FF4805010900B
:1016C00005210CA8FFF7ACFA002801D072B6FEE79E
:1016D00013B030BD4038024000700040024801683D
:1016E00041F470010160704788ED00E0FEE70907F2
:1016F000090E002804DB00F1E02080F80014704798
:1017000000F00F0000F1E02080F8141D7047000089
:10171000FFF702FAFFF798FFFFF75AFE174816493E
:101720004FF4804201601649416000218160C0E9A8
:10173000031241618161C1610162FEF7A1FF08B13D
:1017400072B6FEE7FFF7A4FE00240122A0B2114604
:10175000FFF772FEFFF750FF641C802CF5DB0024BE
:101760000122A1B21046FFF767FEFFF745FF641C98
:10177000402CF5DBE8E70000005400401800002092
:10178000801A06000148401EFDD1704790D003002A
:101790001CB502238DF804100A2100918DF8052054
:1017A000014601AA0148FFF7E5F81CBD180000201A
:1017B00070B5C2B000248DF8041001A904E0155DD5
:1017C0000E19641C7570E4B29C42F8D30A21009192
:1017D0005B1C01469BB201AA0248FFF7CBF842B05E
:1017E00070BD0000180000204FF04070E1EE100ABC
:1017F000704700000000000000000102030406071B
:101800000809000000000102030400002C18000871
:101810000000002018000000C4010008441800085F
:1018200018000020B80A0000E001000800000000D5
:101830000000000001000000100000000000000097
:041840000024F4008C
:040000050800018965
:00000001FF
